{
  "contractName": "PostList",
  "abi": [
    {
      "inputs": [],
      "payable": false,
      "stateMutability": "nonpayable",
      "type": "constructor"
    },
    {
      "anonymous": false,
      "inputs": [
        {
          "indexed": false,
          "internalType": "uint256",
          "name": "id",
          "type": "uint256"
        },
        {
          "indexed": false,
          "internalType": "string",
          "name": "content",
          "type": "string"
        }
      ],
      "name": "PostCreated",
      "type": "event"
    },
    {
      "anonymous": false,
      "inputs": [
        {
          "indexed": false,
          "internalType": "uint256",
          "name": "id",
          "type": "uint256"
        }
      ],
      "name": "PostDeleted",
      "type": "event"
    },
    {
      "anonymous": false,
      "inputs": [
        {
          "indexed": false,
          "internalType": "uint256",
          "name": "id",
          "type": "uint256"
        },
        {
          "indexed": false,
          "internalType": "string",
          "name": "content",
          "type": "string"
        }
      ],
      "name": "PostUpdated",
      "type": "event"
    },
    {
      "constant": true,
      "inputs": [],
      "name": "postCount",
      "outputs": [
        {
          "internalType": "uint256",
          "name": "",
          "type": "uint256"
        }
      ],
      "payable": false,
      "stateMutability": "view",
      "type": "function"
    },
    {
      "constant": true,
      "inputs": [
        {
          "internalType": "uint256",
          "name": "",
          "type": "uint256"
        }
      ],
      "name": "posts",
      "outputs": [
        {
          "internalType": "uint256",
          "name": "id",
          "type": "uint256"
        },
        {
          "internalType": "string",
          "name": "content",
          "type": "string"
        }
      ],
      "payable": false,
      "stateMutability": "view",
      "type": "function"
    },
    {
      "constant": false,
      "inputs": [
        {
          "internalType": "string",
          "name": "content",
          "type": "string"
        }
      ],
      "name": "createPost",
      "outputs": [],
      "payable": false,
      "stateMutability": "nonpayable",
      "type": "function"
    },
    {
      "constant": true,
      "inputs": [
        {
          "internalType": "uint256",
          "name": "id",
          "type": "uint256"
        }
      ],
      "name": "getPost",
      "outputs": [
        {
          "internalType": "uint256",
          "name": "",
          "type": "uint256"
        },
        {
          "internalType": "string",
          "name": "",
          "type": "string"
        }
      ],
      "payable": false,
      "stateMutability": "view",
      "type": "function"
    },
    {
      "constant": false,
      "inputs": [
        {
          "internalType": "uint256",
          "name": "id",
          "type": "uint256"
        },
        {
          "internalType": "string",
          "name": "content",
          "type": "string"
        }
      ],
      "name": "updatePost",
      "outputs": [],
      "payable": false,
      "stateMutability": "nonpayable",
      "type": "function"
    },
    {
      "constant": false,
      "inputs": [
        {
          "internalType": "uint256",
          "name": "id",
          "type": "uint256"
        }
      ],
      "name": "deletePost",
      "outputs": [],
      "payable": false,
      "stateMutability": "nonpayable",
      "type": "function"
    }
  ],
  "bytecode": "0x608060405233600160006101000a81548173ffffffffffffffffffffffffffffffffffffffff021916908373ffffffffffffffffffffffffffffffffffffffff160217905550600160025534801561005657600080fd5b5061009b6040518060400160405280601381526020017f46697273742064656661756c7420706f73742e000000000000000000000000008152506100a060201b60201c565b6102af565b33600160006101000a81548173ffffffffffffffffffffffffffffffffffffffff021916908373ffffffffffffffffffffffffffffffffffffffff160217905550600060405180604001604052806002548152602001838152509080600181540180825580915050906001820390600052602060002090600202016000909192909190915060008201518160000155602082015181600101908051906020019061014b92919061020a565b505050506002600081548092919060010191905055507f3d4335cbfac350aa27a3fa09060b4691656ecbe3033f4d953849c2f755f230d1600254826040518083815260200180602001828103825283818151815260200191508051906020019080838360005b838110156101cc5780820151818401526020810190506101b1565b50505050905090810190601f1680156101f95780820380516001836020036101000a031916815260200191505b50935050505060405180910390a150565b828054600181600116156101000203166002900490600052602060002090601f016020900481019282601f1061024b57805160ff1916838001178555610279565b82800160010185558215610279579182015b8281111561027857825182559160200191906001019061025d565b5b509050610286919061028a565b5090565b6102ac91905b808211156102a8576000816000905550600101610290565b5090565b90565b610c10806102be6000396000f3fe608060405234801561001057600080fd5b50600436106100625760003560e01c8063094cd5ee146100675780630b1e7f831461009557806317906c2e1461014357806340731c2414610161578063b406db9b1461020f578063c7303c61146102d4575b600080fd5b6100936004803603602081101561007d57600080fd5b810190808035906020019092919050505061038f565b005b6100c1600480360360208110156100ab57600080fd5b81019080803590602001909291905050506104d0565b6040518083815260200180602001828103825283818151815260200191508051906020019080838360005b838110156101075780820151818401526020810190506100ec565b50505050905090810190601f1680156101345780820380516001836020036101000a031916815260200191505b50935050505060405180910390f35b61014b610599565b6040518082815260200191505060405180910390f35b61018d6004803603602081101561017757600080fd5b810190808035906020019092919050505061059f565b6040518083815260200180602001828103825283818151815260200191508051906020019080838360005b838110156101d35780820151818401526020810190506101b8565b50505050905090810190601f1680156102005780820380516001836020036101000a031916815260200191505b50935050505060405180910390f35b6102d26004803603604081101561022557600080fd5b81019080803590602001909291908035906020019064010000000081111561024c57600080fd5b82018360208201111561025e57600080fd5b8035906020019184600183028401116401000000008311171561028057600080fd5b91908080601f016020809104026020016040519081016040528093929190818152602001838380828437600081840152601f19601f820116905080830192505050505050509192919290505050610693565b005b61038d600480360360208110156102ea57600080fd5b810190808035906020019064010000000081111561030757600080fd5b82018360208201111561031957600080fd5b8035906020019184600183028401116401000000008311171561033b57600080fd5b91908080601f016020809104026020016040519081016040528093929190818152602001838380828437600081840152601f19601f82011690508083019250505050505050919291929050505061083f565b005b600160009054906101000a900473ffffffffffffffffffffffffffffffffffffffff1673ffffffffffffffffffffffffffffffffffffffff163373ffffffffffffffffffffffffffffffffffffffff1614610452576040517f08c379a00000000000000000000000000000000000000000000000000000000081526004018080602001828103825260178152602001807f41646472657373206e6f7420617574686f72697a65642e00000000000000000081525060200191505060405180910390fd5b600061045d826109a9565b90506000818154811061046c57fe5b90600052602060002090600202016000808201600090556001820160006104939190610a6e565b50507f32d67e2131cd025eb20e7256680e338dedbe17b28943a11681860a9271ad119d826040518082815260200191505060405180910390a15050565b600081815481106104dd57fe5b9060005260206000209060020201600091509050806000015490806001018054600181600116156101000203166002900480601f01602080910402602001604051908101604052809291908181526020018280546001816001161561010002031660029004801561058f5780601f106105645761010080835404028352916020019161058f565b820191906000526020600020905b81548152906001019060200180831161057257829003601f168201915b5050505050905082565b60025481565b6000606060006105ae846109a9565b9050600081815481106105bd57fe5b906000526020600020906002020160000154600082815481106105dc57fe5b9060005260206000209060020201600101808054600181600116156101000203166002900480601f0160208091040260200160405190810160405280929190818152602001828054600181600116156101000203166002900480156106825780601f1061065757610100808354040283529160200191610682565b820191906000526020600020905b81548152906001019060200180831161066557829003601f168201915b505050505090509250925050915091565b600160009054906101000a900473ffffffffffffffffffffffffffffffffffffffff1673ffffffffffffffffffffffffffffffffffffffff163373ffffffffffffffffffffffffffffffffffffffff1614610756576040517f08c379a00000000000000000000000000000000000000000000000000000000081526004018080602001828103825260178152602001807f41646472657373206e6f7420617574686f72697a65642e00000000000000000081525060200191505060405180910390fd5b6000610761836109a9565b9050816000828154811061077157fe5b90600052602060002090600202016001019080519060200190610795929190610ab6565b507f1543455326671a5cec34d2f18ecc36e6b7370311acb09f402d53493726f2923783836040518083815260200180602001828103825283818151815260200191508051906020019080838360005b838110156107ff5780820151818401526020810190506107e4565b50505050905090810190601f16801561082c5780820380516001836020036101000a031916815260200191505b50935050505060405180910390a1505050565b33600160006101000a81548173ffffffffffffffffffffffffffffffffffffffff021916908373ffffffffffffffffffffffffffffffffffffffff16021790555060006040518060400160405280600254815260200183815250908060018154018082558091505090600182039060005260206000209060020201600090919290919091506000820151816000015560208201518160010190805190602001906108ea929190610b36565b505050506002600081548092919060010191905055507f3d4335cbfac350aa27a3fa09060b4691656ecbe3033f4d953849c2f755f230d1600254826040518083815260200180602001828103825283818151815260200191508051906020019080838360005b8381101561096b578082015181840152602081019050610950565b50505050905090810190601f1680156109985780820380516001836020036101000a031916815260200191505b50935050505060405180910390a150565b600080600090505b6000805490508110156109fa5782600082815481106109cc57fe5b90600052602060002090600202016000015414156109ed5780915050610a69565b80806001019150506109b1565b506040517f08c379a000000000000000000000000000000000000000000000000000000000815260040180806020018281038252600f8152602001807f506f7374206e6f7420666f756e642e000000000000000000000000000000000081525060200191505060405180910390fd5b919050565b50805460018160011615610100020316600290046000825580601f10610a945750610ab3565b601f016020900490600052602060002090810190610ab29190610bb6565b5b50565b828054600181600116156101000203166002900490600052602060002090601f016020900481019282601f10610af757805160ff1916838001178555610b25565b82800160010185558215610b25579182015b82811115610b24578251825591602001919060010190610b09565b5b509050610b329190610bb6565b5090565b828054600181600116156101000203166002900490600052602060002090601f016020900481019282601f10610b7757805160ff1916838001178555610ba5565b82800160010185558215610ba5579182015b82811115610ba4578251825591602001919060010190610b89565b5b509050610bb29190610bb6565b5090565b610bd891905b80821115610bd4576000816000905550600101610bbc565b5090565b9056fea265627a7a7231582073520397031cb73424ac750cbe31faf8a1c22e03e3044e966f8d933d683423f564736f6c63430005100032",
  "source": "pragma solidity >=0.5.0 <0.7.0;\r\n\r\ncontract PostList {\r\n    struct Post {\r\n        uint id;\r\n        string content;\r\n    }\r\n    Post[] public posts;\r\n    address owner = msg.sender;\r\n    uint public postCount = 1;\r\n    event PostCreated(\r\n        uint id,\r\n        string content\r\n    );\r\n    event PostUpdated(\r\n        uint id,\r\n        string content\r\n    );\r\n    event PostDeleted(\r\n        uint id\r\n    );\r\n    function createPost(string memory content) public {\r\n        owner = msg.sender;\r\n        posts.push(Post(postCount, content));\r\n        postCount++;\r\n        emit PostCreated(postCount, content);\r\n    }\r\n    function getPost(uint id) public view returns(uint, string memory) {\r\n        uint i = find(id);\r\n        return(posts[i].id, posts[i].content);\r\n    }\r\n    function updatePost(uint id, string memory content) public {\r\n        require(msg.sender == owner, \"Address not authorized.\");\r\n        uint i = find(id);\r\n        posts[i].content = content;\r\n        emit PostUpdated(id, content);\r\n    }\r\n    function deletePost(uint id) public {\r\n        require(msg.sender == owner, \"Address not authorized.\");\r\n        uint i = find(id);\r\n        delete posts[i];\r\n        emit PostDeleted(id);\r\n    }\r\n    function find(uint id) internal view returns(uint) {\r\n        for(uint i = 0; i < posts.length; i++) {\r\n            if(posts[i].id == id) {\r\n                return i;\r\n            }\r\n        }\r\n        revert(\"Post not found.\");\r\n    }\r\n    constructor() public {\r\n        createPost(\"First default post.\");\r\n    }\r\n}",
  "sourcePath": "C:\\Users\\UX410UQ\\web-projects\\eth-postlist\\contracts\\PostList.sol",
  "compiler": {
    "name": "solc",
    "version": "0.5.16+commit.9c3226ce.Emscripten.clang"
  },
  "schemaVersion": "3.1.0",
  "updatedAt": "2020-05-27T12:46:36.220Z",
  "networkType": "ethereum",
  "devdoc": {
    "methods": {}
  },
  "userdoc": {
    "methods": {}
  }
}